{
  "_format": "hh3-artifact-1",
  "contractName": "ProtocolProvenanceRegistry",
  "sourceName": "contracts/ProtocolProvenanceRegistry.sol",
  "abi": [
    {
      "inputs": [],
      "stateMutability": "nonpayable",
      "type": "constructor"
    },
    {
      "inputs": [],
      "name": "InvalidAuditHash",
      "type": "error"
    },
    {
      "inputs": [],
      "name": "InvalidAuditor",
      "type": "error"
    },
    {
      "inputs": [],
      "name": "InvalidCommitHash",
      "type": "error"
    },
    {
      "inputs": [],
      "name": "InvalidContractAddress",
      "type": "error"
    },
    {
      "inputs": [],
      "name": "InvalidProtocolName",
      "type": "error"
    },
    {
      "inputs": [],
      "name": "InvalidVersion",
      "type": "error"
    },
    {
      "inputs": [],
      "name": "NotOwner",
      "type": "error"
    },
    {
      "anonymous": false,
      "inputs": [
        {
          "indexed": true,
          "internalType": "address",
          "name": "previousOwner",
          "type": "address"
        },
        {
          "indexed": true,
          "internalType": "address",
          "name": "newOwner",
          "type": "address"
        }
      ],
      "name": "OwnershipTransferred",
      "type": "event"
    },
    {
      "anonymous": false,
      "inputs": [
        {
          "indexed": true,
          "internalType": "address",
          "name": "contractAddress",
          "type": "address"
        },
        {
          "indexed": true,
          "internalType": "bytes32",
          "name": "auditHash",
          "type": "bytes32"
        },
        {
          "indexed": true,
          "internalType": "bytes32",
          "name": "commitHash",
          "type": "bytes32"
        },
        {
          "indexed": false,
          "internalType": "string",
          "name": "protocolName",
          "type": "string"
        },
        {
          "indexed": false,
          "internalType": "string",
          "name": "version",
          "type": "string"
        },
        {
          "indexed": false,
          "internalType": "string",
          "name": "auditor",
          "type": "string"
        },
        {
          "indexed": false,
          "internalType": "uint256",
          "name": "timestamp",
          "type": "uint256"
        }
      ],
      "name": "ProtocolRegistered",
      "type": "event"
    },
    {
      "inputs": [
        {
          "internalType": "address",
          "name": "contractAddress",
          "type": "address"
        }
      ],
      "name": "getLatestRecord",
      "outputs": [
        {
          "components": [
            {
              "internalType": "string",
              "name": "protocolName",
              "type": "string"
            },
            {
              "internalType": "address",
              "name": "contractAddress",
              "type": "address"
            },
            {
              "internalType": "string",
              "name": "version",
              "type": "string"
            },
            {
              "internalType": "bytes32",
              "name": "auditHash",
              "type": "bytes32"
            },
            {
              "internalType": "bytes32",
              "name": "commitHash",
              "type": "bytes32"
            },
            {
              "internalType": "string",
              "name": "auditor",
              "type": "string"
            },
            {
              "internalType": "uint256",
              "name": "timestamp",
              "type": "uint256"
            }
          ],
          "internalType": "struct ProtocolProvenanceRegistry.ProtocolRecord",
          "name": "",
          "type": "tuple"
        }
      ],
      "stateMutability": "view",
      "type": "function"
    },
    {
      "inputs": [
        {
          "internalType": "address",
          "name": "contractAddress",
          "type": "address"
        }
      ],
      "name": "getProtocolHistory",
      "outputs": [
        {
          "components": [
            {
              "internalType": "string",
              "name": "protocolName",
              "type": "string"
            },
            {
              "internalType": "address",
              "name": "contractAddress",
              "type": "address"
            },
            {
              "internalType": "string",
              "name": "version",
              "type": "string"
            },
            {
              "internalType": "bytes32",
              "name": "auditHash",
              "type": "bytes32"
            },
            {
              "internalType": "bytes32",
              "name": "commitHash",
              "type": "bytes32"
            },
            {
              "internalType": "string",
              "name": "auditor",
              "type": "string"
            },
            {
              "internalType": "uint256",
              "name": "timestamp",
              "type": "uint256"
            }
          ],
          "internalType": "struct ProtocolProvenanceRegistry.ProtocolRecord[]",
          "name": "",
          "type": "tuple[]"
        }
      ],
      "stateMutability": "view",
      "type": "function"
    },
    {
      "inputs": [
        {
          "internalType": "address",
          "name": "contractAddress",
          "type": "address"
        }
      ],
      "name": "getRecordCount",
      "outputs": [
        {
          "internalType": "uint256",
          "name": "",
          "type": "uint256"
        }
      ],
      "stateMutability": "view",
      "type": "function"
    },
    {
      "inputs": [],
      "name": "owner",
      "outputs": [
        {
          "internalType": "address",
          "name": "",
          "type": "address"
        }
      ],
      "stateMutability": "view",
      "type": "function"
    },
    {
      "inputs": [
        {
          "internalType": "string",
          "name": "protocolName",
          "type": "string"
        },
        {
          "internalType": "address",
          "name": "contractAddress",
          "type": "address"
        },
        {
          "internalType": "string",
          "name": "version",
          "type": "string"
        },
        {
          "internalType": "bytes32",
          "name": "auditHash",
          "type": "bytes32"
        },
        {
          "internalType": "bytes32",
          "name": "commitHash",
          "type": "bytes32"
        },
        {
          "internalType": "string",
          "name": "auditor",
          "type": "string"
        }
      ],
      "name": "registerProtocolRecord",
      "outputs": [],
      "stateMutability": "nonpayable",
      "type": "function"
    },
    {
      "inputs": [
        {
          "internalType": "address",
          "name": "newOwner",
          "type": "address"
        }
      ],
      "name": "transferOwnership",
      "outputs": [],
      "stateMutability": "nonpayable",
      "type": "function"
    }
  ],
  "bytecode": "0x6080604052348015600e575f5ffd5b505f80546001600160a01b0319163390811782556040519091907f8be0079c531659141344cd1fd0a4f28419497f9722a3daafe3b4186f6b6457e0908290a3610dc88061005a5f395ff3fe608060405234801561000f575f5ffd5b5060043610610060575f3560e01c80631be0d832146100645780632f63bd6a1461007957806356167c45146100a257806358214308146100c25780638da5cb5b146100f8578063f2fde38b14610122575b5f5ffd5b6100776100723660046109d9565b610135565b005b61008c610087366004610a89565b610330565b6040516100999190610b5b565b60405180910390f35b6100b56100b0366004610a89565b61060a565b6040516100999190610b6d565b6100ea6100d0366004610a89565b6001600160a01b03165f9081526001602052604090205490565b604051908152602001610099565b5f5461010a906001600160a01b031681565b6040516001600160a01b039091168152602001610099565b610077610130366004610a89565b610860565b85515f0361015657604051635e2eba9760e01b815260040160405180910390fd5b6001600160a01b03851661017d5760405163a710429d60e01b815260040160405180910390fd5b83515f0361019e5760405163a9146eeb60e01b815260040160405180910390fd5b826101bc576040516302560e1760e11b815260040160405180910390fd5b816101da57604051630b9e91c760e11b815260040160405180910390fd5b80515f036101fb5760405163653f34c560e01b815260040160405180910390fd5b6040805160e0810182528781526001600160a01b0387166020808301829052828401889052606083018790526080830186905260a083018590524260c08401525f91825260018082529382208054948501815582529020815191928392600790910290910190819061026d9082610c54565b5060208201516001820180546001600160a01b0319166001600160a01b03909216919091179055604082015160028201906102a89082610c54565b50606082015160038201556080820151600482015560a082015160058201906102d19082610c54565b5060c0820151816006015550508284876001600160a01b03167f5fb223352be101f9f966088da32ca4b70aa4cec404c80ea2493454b89aac8bb18a89874260405161031f9493929190610d0f565b60405180910390a450505050505050565b6103756040518060e00160405280606081526020015f6001600160a01b03168152602001606081526020015f81526020015f8152602001606081526020015f81525090565b6001600160a01b0382165f908152600160205260409020546103d15760405162461bcd60e51b815260206004820152601060248201526f139bc81c9958dbdc991cc8199bdd5b9960821b60448201526064015b60405180910390fd5b6001600160a01b0382165f908152600160208190526040909120805490916103f891610d59565b8154811061040857610408610d7e565b905f5260205f2090600702016040518060e00160405290815f8201805461042e90610bd0565b80601f016020809104026020016040519081016040528092919081815260200182805461045a90610bd0565b80156104a55780601f1061047c576101008083540402835291602001916104a5565b820191905f5260205f20905b81548152906001019060200180831161048857829003601f168201915b505050918352505060018201546001600160a01b031660208201526002820180546040909201916104d590610bd0565b80601f016020809104026020016040519081016040528092919081815260200182805461050190610bd0565b801561054c5780601f106105235761010080835404028352916020019161054c565b820191905f5260205f20905b81548152906001019060200180831161052f57829003601f168201915b50505050508152602001600382015481526020016004820154815260200160058201805461057990610bd0565b80601f01602080910402602001604051908101604052809291908181526020018280546105a590610bd0565b80156105f05780601f106105c7576101008083540402835291602001916105f0565b820191905f5260205f20905b8154815290600101906020018083116105d357829003601f168201915b505050505081526020016006820154815250509050919050565b6001600160a01b0381165f908152600160209081526040808320805482518185028101850190935280835260609492939192909184015b82821015610855578382905f5260205f2090600702016040518060e00160405290815f8201805461067190610bd0565b80601f016020809104026020016040519081016040528092919081815260200182805461069d90610bd0565b80156106e85780601f106106bf576101008083540402835291602001916106e8565b820191905f5260205f20905b8154815290600101906020018083116106cb57829003601f168201915b505050918352505060018201546001600160a01b0316602082015260028201805460409092019161071890610bd0565b80601f016020809104026020016040519081016040528092919081815260200182805461074490610bd0565b801561078f5780601f106107665761010080835404028352916020019161078f565b820191905f5260205f20905b81548152906001019060200180831161077257829003601f168201915b5050505050815260200160038201548152602001600482015481526020016005820180546107bc90610bd0565b80601f01602080910402602001604051908101604052809291908181526020018280546107e890610bd0565b80156108335780601f1061080a57610100808354040283529160200191610833565b820191905f5260205f20905b81548152906001019060200180831161081657829003601f168201915b5050505050815260200160068201548152505081526020019060010190610641565b505050509050919050565b5f546001600160a01b0316331461088a576040516330cd747160e01b815260040160405180910390fd5b6001600160a01b0381166108d05760405162461bcd60e51b815260206004820152600d60248201526c24b73b30b634b21037bbb732b960991b60448201526064016103c8565b5f80546001600160a01b038381166001600160a01b0319831681178455604051919092169283917f8be0079c531659141344cd1fd0a4f28419497f9722a3daafe3b4186f6b6457e09190a35050565b634e487b7160e01b5f52604160045260245ffd5b5f82601f830112610942575f5ffd5b813567ffffffffffffffff81111561095c5761095c61091f565b604051601f8201601f19908116603f0116810167ffffffffffffffff8111828210171561098b5761098b61091f565b6040528181528382016020018510156109a2575f5ffd5b816020850160208301375f918101602001919091529392505050565b80356001600160a01b03811681146109d4575f5ffd5b919050565b5f5f5f5f5f5f60c087890312156109ee575f5ffd5b863567ffffffffffffffff811115610a04575f5ffd5b610a1089828a01610933565b965050610a1f602088016109be565b9450604087013567ffffffffffffffff811115610a3a575f5ffd5b610a4689828a01610933565b945050606087013592506080870135915060a087013567ffffffffffffffff811115610a70575f5ffd5b610a7c89828a01610933565b9150509295509295509295565b5f60208284031215610a99575f5ffd5b610aa2826109be565b9392505050565b5f81518084528060208401602086015e5f602082860101526020601f19601f83011685010191505092915050565b5f815160e08452610aeb60e0850182610aa9565b905060018060a01b03602084015116602085015260408301518482036040860152610b168282610aa9565b915050606083015160608501526080830151608085015260a083015184820360a0860152610b448282610aa9565b91505060c083015160c08501528091505092915050565b602081525f610aa26020830184610ad7565b5f602082016020835280845180835260408501915060408160051b8601019250602086015f5b82811015610bc457603f19878603018452610baf858351610ad7565b94506020938401939190910190600101610b93565b50929695505050505050565b600181811c90821680610be457607f821691505b602082108103610c0257634e487b7160e01b5f52602260045260245ffd5b50919050565b601f821115610c4f57805f5260205f20601f840160051c81016020851015610c2d5750805b601f840160051c820191505b81811015610c4c575f8155600101610c39565b50505b505050565b815167ffffffffffffffff811115610c6e57610c6e61091f565b610c8281610c7c8454610bd0565b84610c08565b6020601f821160018114610cb4575f8315610c9d5750848201515b5f19600385901b1c1916600184901b178455610c4c565b5f84815260208120601f198516915b82811015610ce35787850151825560209485019460019092019101610cc3565b5084821015610d0057868401515f19600387901b60f8161c191681555b50505050600190811b01905550565b608081525f610d216080830187610aa9565b8281036020840152610d338187610aa9565b90508281036040840152610d478186610aa9565b91505082606083015295945050505050565b81810381811115610d7857634e487b7160e01b5f52601160045260245ffd5b92915050565b634e487b7160e01b5f52603260045260245ffdfea2646970667358221220e3cc72572a6ca850fe6fc2118903d047a2e422b59de3065389dd0bba2c6935c064736f6c634300081c0033",
  "linkReferences": {},
  "deployedLinkReferences": {},
  "immutableReferences": {},
  "inputSourceName": "project/contracts/ProtocolProvenanceRegistry.sol",
  "buildInfoId": "solc-0_8_28-36fef0d0133f8e83b7db15ae68a6a29a0f1dc470"
}